{
  "_format": "hh-sol-artifact-1",
  "contractName": "DigitalIdentity",
  "sourceName": "contracts/DigitalIdentity.sol",
  "abi": [
    {
      "inputs": [],
      "stateMutability": "nonpayable",
      "type": "constructor"
    },
    {
      "anonymous": false,
      "inputs": [
        {
          "indexed": true,
          "internalType": "address",
          "name": "owner",
          "type": "address"
        },
        {
          "indexed": true,
          "internalType": "address",
          "name": "approved",
          "type": "address"
        },
        {
          "indexed": true,
          "internalType": "uint256",
          "name": "tokenId",
          "type": "uint256"
        }
      ],
      "name": "Approval",
      "type": "event"
    },
    {
      "anonymous": false,
      "inputs": [
        {
          "indexed": true,
          "internalType": "address",
          "name": "owner",
          "type": "address"
        },
        {
          "indexed": true,
          "internalType": "address",
          "name": "operator",
          "type": "address"
        },
        {
          "indexed": false,
          "internalType": "bool",
          "name": "approved",
          "type": "bool"
        }
      ],
      "name": "ApprovalForAll",
      "type": "event"
    },
    {
      "anonymous": false,
      "inputs": [
        {
          "indexed": true,
          "internalType": "address",
          "name": "previousOwner",
          "type": "address"
        },
        {
          "indexed": true,
          "internalType": "address",
          "name": "newOwner",
          "type": "address"
        }
      ],
      "name": "OwnershipTransferred",
      "type": "event"
    },
    {
      "anonymous": false,
      "inputs": [
        {
          "indexed": true,
          "internalType": "address",
          "name": "from",
          "type": "address"
        },
        {
          "indexed": true,
          "internalType": "address",
          "name": "to",
          "type": "address"
        },
        {
          "indexed": true,
          "internalType": "uint256",
          "name": "tokenId",
          "type": "uint256"
        }
      ],
      "name": "Transfer",
      "type": "event"
    },
    {
      "inputs": [
        {
          "internalType": "address",
          "name": "to",
          "type": "address"
        },
        {
          "internalType": "uint256",
          "name": "tokenId",
          "type": "uint256"
        }
      ],
      "name": "approve",
      "outputs": [],
      "stateMutability": "nonpayable",
      "type": "function"
    },
    {
      "inputs": [
        {
          "internalType": "address",
          "name": "owner",
          "type": "address"
        }
      ],
      "name": "balanceOf",
      "outputs": [
        {
          "internalType": "uint256",
          "name": "",
          "type": "uint256"
        }
      ],
      "stateMutability": "view",
      "type": "function"
    },
    {
      "inputs": [
        {
          "internalType": "uint256",
          "name": "tokenId",
          "type": "uint256"
        }
      ],
      "name": "getApproved",
      "outputs": [
        {
          "internalType": "address",
          "name": "",
          "type": "address"
        }
      ],
      "stateMutability": "view",
      "type": "function"
    },
    {
      "inputs": [
        {
          "internalType": "address",
          "name": "owner",
          "type": "address"
        },
        {
          "internalType": "address",
          "name": "operator",
          "type": "address"
        }
      ],
      "name": "isApprovedForAll",
      "outputs": [
        {
          "internalType": "bool",
          "name": "",
          "type": "bool"
        }
      ],
      "stateMutability": "view",
      "type": "function"
    },
    {
      "inputs": [],
      "name": "mint",
      "outputs": [],
      "stateMutability": "nonpayable",
      "type": "function"
    },
    {
      "inputs": [],
      "name": "name",
      "outputs": [
        {
          "internalType": "string",
          "name": "",
          "type": "string"
        }
      ],
      "stateMutability": "view",
      "type": "function"
    },
    {
      "inputs": [],
      "name": "owner",
      "outputs": [
        {
          "internalType": "address",
          "name": "",
          "type": "address"
        }
      ],
      "stateMutability": "view",
      "type": "function"
    },
    {
      "inputs": [
        {
          "internalType": "uint256",
          "name": "tokenId",
          "type": "uint256"
        }
      ],
      "name": "ownerOf",
      "outputs": [
        {
          "internalType": "address",
          "name": "",
          "type": "address"
        }
      ],
      "stateMutability": "view",
      "type": "function"
    },
    {
      "inputs": [],
      "name": "renounceOwnership",
      "outputs": [],
      "stateMutability": "nonpayable",
      "type": "function"
    },
    {
      "inputs": [
        {
          "internalType": "address",
          "name": "from",
          "type": "address"
        },
        {
          "internalType": "address",
          "name": "to",
          "type": "address"
        },
        {
          "internalType": "uint256",
          "name": "tokenId",
          "type": "uint256"
        }
      ],
      "name": "safeTransferFrom",
      "outputs": [],
      "stateMutability": "nonpayable",
      "type": "function"
    },
    {
      "inputs": [
        {
          "internalType": "address",
          "name": "from",
          "type": "address"
        },
        {
          "internalType": "address",
          "name": "to",
          "type": "address"
        },
        {
          "internalType": "uint256",
          "name": "tokenId",
          "type": "uint256"
        },
        {
          "internalType": "bytes",
          "name": "_data",
          "type": "bytes"
        }
      ],
      "name": "safeTransferFrom",
      "outputs": [],
      "stateMutability": "nonpayable",
      "type": "function"
    },
    {
      "inputs": [
        {
          "internalType": "address",
          "name": "operator",
          "type": "address"
        },
        {
          "internalType": "bool",
          "name": "approved",
          "type": "bool"
        }
      ],
      "name": "setApprovalForAll",
      "outputs": [],
      "stateMutability": "nonpayable",
      "type": "function"
    },
    {
      "inputs": [
        {
          "internalType": "string",
          "name": "_baseTokenURI",
          "type": "string"
        }
      ],
      "name": "setBaseURI",
      "outputs": [],
      "stateMutability": "nonpayable",
      "type": "function"
    },
    {
      "inputs": [
        {
          "internalType": "bytes4",
          "name": "interfaceId",
          "type": "bytes4"
        }
      ],
      "name": "supportsInterface",
      "outputs": [
        {
          "internalType": "bool",
          "name": "",
          "type": "bool"
        }
      ],
      "stateMutability": "view",
      "type": "function"
    },
    {
      "inputs": [],
      "name": "symbol",
      "outputs": [
        {
          "internalType": "string",
          "name": "",
          "type": "string"
        }
      ],
      "stateMutability": "view",
      "type": "function"
    },
    {
      "inputs": [
        {
          "internalType": "uint256",
          "name": "index",
          "type": "uint256"
        }
      ],
      "name": "tokenByIndex",
      "outputs": [
        {
          "internalType": "uint256",
          "name": "",
          "type": "uint256"
        }
      ],
      "stateMutability": "view",
      "type": "function"
    },
    {
      "inputs": [
        {
          "internalType": "address",
          "name": "owner",
          "type": "address"
        },
        {
          "internalType": "uint256",
          "name": "index",
          "type": "uint256"
        }
      ],
      "name": "tokenOfOwnerByIndex",
      "outputs": [
        {
          "internalType": "uint256",
          "name": "",
          "type": "uint256"
        }
      ],
      "stateMutability": "view",
      "type": "function"
    },
    {
      "inputs": [
        {
          "internalType": "uint256",
          "name": "tokenId",
          "type": "uint256"
        }
      ],
      "name": "tokenURI",
      "outputs": [
        {
          "internalType": "string",
          "name": "",
          "type": "string"
        }
      ],
      "stateMutability": "view",
      "type": "function"
    },
    {
      "inputs": [],
      "name": "totalSupply",
      "outputs": [
        {
          "internalType": "uint256",
          "name": "",
          "type": "uint256"
        }
      ],
      "stateMutability": "view",
      "type": "function"
    },
    {
      "inputs": [
        {
          "internalType": "address",
          "name": "from",
          "type": "address"
        },
        {
          "internalType": "address",
          "name": "to",
          "type": "address"
        },
        {
          "internalType": "uint256",
          "name": "tokenId",
          "type": "uint256"
        }
      ],
      "name": "transferFrom",
      "outputs": [],
      "stateMutability": "nonpayable",
      "type": "function"
    },
    {
      "inputs": [
        {
          "internalType": "address",
          "name": "newOwner",
          "type": "address"
        }
      ],
      "name": "transferOwnership",
      "outputs": [],
      "stateMutability": "nonpayable",
      "type": "function"
    }
  ],
  "bytecode": "0x60806040523480156200001157600080fd5b506040518060400160405280601881526020017f536368306c61724469676974616c4964656e74697469657300000000000000008152506040518060400160405280600481526020017f5344494400000000000000000000000000000000000000000000000000000000815250816000908051906020019062000096929190620001a6565b508060019080519060200190620000af929190620001a6565b505050620000d2620000c6620000d860201b60201c565b620000e060201b60201c565b620002bb565b600033905090565b6000600a60009054906101000a900473ffffffffffffffffffffffffffffffffffffffff16905081600a60006101000a81548173ffffffffffffffffffffffffffffffffffffffff021916908373ffffffffffffffffffffffffffffffffffffffff1602179055508173ffffffffffffffffffffffffffffffffffffffff168173ffffffffffffffffffffffffffffffffffffffff167f8be0079c531659141344cd1fd0a4f28419497f9722a3daafe3b4186f6b6457e060405160405180910390a35050565b828054620001b49062000256565b90600052602060002090601f016020900481019282620001d8576000855562000224565b82601f10620001f357805160ff191683800117855562000224565b8280016001018555821562000224579182015b828111156200022357825182559160200191906001019062000206565b5b50905062000233919062000237565b5090565b5b808211156200025257600081600090555060010162000238565b5090565b600060028204905060018216806200026f57607f821691505b602082108114156200028657620002856200028c565b5b50919050565b7f4e487b7100000000000000000000000000000000000000000000000000000000600052602260045260246000fd5b61356680620002cb6000396000f3fe608060405234801561001057600080fd5b50600436106101375760003560e01c806355f804b3116100b857806395d89b411161007c57806395d89b411461033a578063a22cb46514610358578063b88d4fde14610374578063c87b56dd14610390578063e985e9c5146103c0578063f2fde38b146103f057610137565b806355f804b3146102965780636352211e146102b257806370a08231146102e2578063715018a6146103125780638da5cb5b1461031c57610137565b806318160ddd116100ff57806318160ddd146101e057806323b872dd146101fe5780632f745c591461021a57806342842e0e1461024a5780634f6ccce71461026657610137565b806301ffc9a71461013c57806306fdde031461016c578063081812fc1461018a578063095ea7b3146101ba5780631249c58b146101d6575b600080fd5b6101566004803603810190610151919061244e565b61040c565b60405161016391906128ef565b60405180910390f35b610174610486565b604051610181919061290a565b60405180910390f35b6101a4600480360381019061019f91906124f1565b610518565b6040516101b19190612888565b60405180910390f35b6101d460048036038101906101cf919061240e565b61059d565b005b6101de6106b5565b005b6101e86106c8565b6040516101f59190612b6c565b60405180910390f35b610218600480360381019061021391906122f8565b6106d5565b005b610234600480360381019061022f919061240e565b610735565b6040516102419190612b6c565b60405180910390f35b610264600480360381019061025f91906122f8565b6107da565b005b610280600480360381019061027b91906124f1565b6107fa565b60405161028d9190612b6c565b60405180910390f35b6102b060048036038101906102ab91906124a8565b61086b565b005b6102cc60048036038101906102c791906124f1565b610901565b6040516102d99190612888565b60405180910390f35b6102fc60048036038101906102f7919061228b565b6109b3565b6040516103099190612b6c565b60405180910390f35b61031a610a6b565b005b610324610af3565b6040516103319190612888565b60405180910390f35b610342610b1d565b60405161034f919061290a565b60405180910390f35b610372600480360381019061036d91906123ce565b610baf565b005b61038e6004803603810190610389919061234b565b610bc5565b005b6103aa60048036038101906103a591906124f1565b610c27565b6040516103b7919061290a565b60405180910390f35b6103da60048036038101906103d591906122b8565b610cce565b6040516103e791906128ef565b60405180910390f35b61040a6004803603810190610405919061228b565b610d62565b005b60007f780e9d63000000000000000000000000000000000000000000000000000000007bffffffffffffffffffffffffffffffffffffffffffffffffffffffff1916827bffffffffffffffffffffffffffffffffffffffffffffffffffffffff1916148061047f575061047e82610e5a565b5b9050919050565b60606000805461049590612dc2565b80601f01602080910402602001604051908101604052809291908181526020018280546104c190612dc2565b801561050e5780601f106104e35761010080835404028352916020019161050e565b820191906000526020600020905b8154815290600101906020018083116104f157829003601f168201915b5050505050905090565b600061052382610f3c565b610562576040517f08c379a000000000000000000000000000000000000000000000000000000000815260040161055990612a8c565b60405180910390fd5b6004600083815260200190815260200160002060009054906101000a900473ffffffffffffffffffffffffffffffffffffffff169050919050565b60006105a882610901565b90508073ffffffffffffffffffffffffffffffffffffffff168373ffffffffffffffffffffffffffffffffffffffff161415610619576040517f08c379a000000000000000000000000000000000000000000000000000000000815260040161061090612b0c565b60405180910390fd5b8073ffffffffffffffffffffffffffffffffffffffff16610638610fa8565b73ffffffffffffffffffffffffffffffffffffffff161480610667575061066681610661610fa8565b610cce565b5b6106a6576040517f08c379a000000000000000000000000000000000000000000000000000000000815260040161069d90612a0c565b60405180910390fd5b6106b08383610fb0565b505050565b6106c6336106c16106c8565b611069565b565b6000600880549050905090565b6106e66106e0610fa8565b82611087565b610725576040517f08c379a000000000000000000000000000000000000000000000000000000000815260040161071c90612b2c565b60405180910390fd5b610730838383611165565b505050565b6000610740836109b3565b8210610781576040517f08c379a00000000000000000000000000000000000000000000000000000000081526004016107789061292c565b60405180910390fd5b600660008473ffffffffffffffffffffffffffffffffffffffff1673ffffffffffffffffffffffffffffffffffffffff168152602001908152602001600020600083815260200190815260200160002054905092915050565b6107f583838360405180602001604052806000815250610bc5565b505050565b60006108046106c8565b8210610845576040517f08c379a000000000000000000000000000000000000000000000000000000000815260040161083c90612b4c565b60405180910390fd5b6008828154811061085957610858612f5b565b5b90600052602060002001549050919050565b610873610fa8565b73ffffffffffffffffffffffffffffffffffffffff16610891610af3565b73ffffffffffffffffffffffffffffffffffffffff16146108e7576040517f08c379a00000000000000000000000000000000000000000000000000000000081526004016108de90612aac565b60405180910390fd5b80600b90805190602001906108fd92919061209f565b5050565b6000806002600084815260200190815260200160002060009054906101000a900473ffffffffffffffffffffffffffffffffffffffff169050600073ffffffffffffffffffffffffffffffffffffffff168173ffffffffffffffffffffffffffffffffffffffff1614156109aa576040517f08c379a00000000000000000000000000000000000000000000000000000000081526004016109a190612a4c565b60405180910390fd5b80915050919050565b60008073ffffffffffffffffffffffffffffffffffffffff168273ffffffffffffffffffffffffffffffffffffffff161415610a24576040517f08c379a0000000000000000000000000000000000000000000000000000000008152600401610a1b90612a2c565b60405180910390fd5b600360008373ffffffffffffffffffffffffffffffffffffffff1673ffffffffffffffffffffffffffffffffffffffff168152602001908152602001600020549050919050565b610a73610fa8565b73ffffffffffffffffffffffffffffffffffffffff16610a91610af3565b73ffffffffffffffffffffffffffffffffffffffff1614610ae7576040517f08c379a0000000000000000000000000000000000000000000000000000000008152600401610ade90612aac565b60405180910390fd5b610af160006113c1565b565b6000600a60009054906101000a900473ffffffffffffffffffffffffffffffffffffffff16905090565b606060018054610b2c90612dc2565b80601f0160208091040260200160405190810160405280929190818152602001828054610b5890612dc2565b8015610ba55780601f10610b7a57610100808354040283529160200191610ba5565b820191906000526020600020905b815481529060010190602001808311610b8857829003601f168201915b5050505050905090565b610bc1610bba610fa8565b8383611487565b5050565b610bd6610bd0610fa8565b83611087565b610c15576040517f08c379a0000000000000000000000000000000000000000000000000000000008152600401610c0c90612b2c565b60405180910390fd5b610c21848484846115f4565b50505050565b6060610c3282610f3c565b610c71576040517f08c379a0000000000000000000000000000000000000000000000000000000008152600401610c6890612aec565b60405180910390fd5b6000610c7b611650565b90506000815111610c9b5760405180602001604052806000815250610cc6565b80610ca5846116e2565b604051602001610cb6929190612864565b6040516020818303038152906040525b915050919050565b6000600560008473ffffffffffffffffffffffffffffffffffffffff1673ffffffffffffffffffffffffffffffffffffffff16815260200190815260200160002060008373ffffffffffffffffffffffffffffffffffffffff1673ffffffffffffffffffffffffffffffffffffffff16815260200190815260200160002060009054906101000a900460ff16905092915050565b610d6a610fa8565b73ffffffffffffffffffffffffffffffffffffffff16610d88610af3565b73ffffffffffffffffffffffffffffffffffffffff1614610dde576040517f08c379a0000000000000000000000000000000000000000000000000000000008152600401610dd590612aac565b60405180910390fd5b600073ffffffffffffffffffffffffffffffffffffffff168173ffffffffffffffffffffffffffffffffffffffff161415610e4e576040517f08c379a0000000000000000000000000000000000000000000000000000000008152600401610e459061296c565b60405180910390fd5b610e57816113c1565b50565b60007f80ac58cd000000000000000000000000000000000000000000000000000000007bffffffffffffffffffffffffffffffffffffffffffffffffffffffff1916827bffffffffffffffffffffffffffffffffffffffffffffffffffffffff19161480610f2557507f5b5e139f000000000000000000000000000000000000000000000000000000007bffffffffffffffffffffffffffffffffffffffffffffffffffffffff1916827bffffffffffffffffffffffffffffffffffffffffffffffffffffffff1916145b80610f355750610f3482611843565b5b9050919050565b60008073ffffffffffffffffffffffffffffffffffffffff166002600084815260200190815260200160002060009054906101000a900473ffffffffffffffffffffffffffffffffffffffff1673ffffffffffffffffffffffffffffffffffffffff1614159050919050565b600033905090565b816004600083815260200190815260200160002060006101000a81548173ffffffffffffffffffffffffffffffffffffffff021916908373ffffffffffffffffffffffffffffffffffffffff160217905550808273ffffffffffffffffffffffffffffffffffffffff1661102383610901565b73ffffffffffffffffffffffffffffffffffffffff167f8c5be1e5ebec7d5bd14f71427d1e84f3dd0314c0f7b2291e5b200ac8c7c3b92560405160405180910390a45050565b6110838282604051806020016040528060008152506118ad565b5050565b600061109282610f3c565b6110d1576040517f08c379a00000000000000000000000000000000000000000000000000000000081526004016110c8906129ec565b60405180910390fd5b60006110dc83610901565b90508073ffffffffffffffffffffffffffffffffffffffff168473ffffffffffffffffffffffffffffffffffffffff16148061114b57508373ffffffffffffffffffffffffffffffffffffffff1661113384610518565b73ffffffffffffffffffffffffffffffffffffffff16145b8061115c575061115b8185610cce565b5b91505092915050565b8273ffffffffffffffffffffffffffffffffffffffff1661118582610901565b73ffffffffffffffffffffffffffffffffffffffff16146111db576040517f08c379a00000000000000000000000000000000000000000000000000000000081526004016111d290612acc565b60405180910390fd5b600073ffffffffffffffffffffffffffffffffffffffff168273ffffffffffffffffffffffffffffffffffffffff16141561124b576040517f08c379a0000000000000000000000000000000000000000000000000000000008152600401611242906129ac565b60405180910390fd5b611256838383611908565b611261600082610fb0565b6001600360008573ffffffffffffffffffffffffffffffffffffffff1673ffffffffffffffffffffffffffffffffffffffff16815260200190815260200160002060008282546112b19190612cd8565b925050819055506001600360008473ffffffffffffffffffffffffffffffffffffffff1673ffffffffffffffffffffffffffffffffffffffff16815260200190815260200160002060008282546113089190612c51565b92505081905550816002600083815260200190815260200160002060006101000a81548173ffffffffffffffffffffffffffffffffffffffff021916908373ffffffffffffffffffffffffffffffffffffffff160217905550808273ffffffffffffffffffffffffffffffffffffffff168473ffffffffffffffffffffffffffffffffffffffff167fddf252ad1be2c89b69c2b068fc378daa952ba7f163c4a11628f55a4df523b3ef60405160405180910390a4505050565b6000600a60009054906101000a900473ffffffffffffffffffffffffffffffffffffffff16905081600a60006101000a81548173ffffffffffffffffffffffffffffffffffffffff021916908373ffffffffffffffffffffffffffffffffffffffff1602179055508173ffffffffffffffffffffffffffffffffffffffff168173ffffffffffffffffffffffffffffffffffffffff167f8be0079c531659141344cd1fd0a4f28419497f9722a3daafe3b4186f6b6457e060405160405180910390a35050565b8173ffffffffffffffffffffffffffffffffffffffff168373ffffffffffffffffffffffffffffffffffffffff1614156114f6576040517f08c379a00000000000000000000000000000000000000000000000000000000081526004016114ed906129cc565b60405180910390fd5b80600560008573ffffffffffffffffffffffffffffffffffffffff1673ffffffffffffffffffffffffffffffffffffffff16815260200190815260200160002060008473ffffffffffffffffffffffffffffffffffffffff1673ffffffffffffffffffffffffffffffffffffffff16815260200190815260200160002060006101000a81548160ff0219169083151502179055508173ffffffffffffffffffffffffffffffffffffffff168373ffffffffffffffffffffffffffffffffffffffff167f17307eab39ab6107e8899845ad3d59bd9653f200f220920489ca2b5937696c31836040516115e791906128ef565b60405180910390a3505050565b6115ff848484611165565b61160b84848484611a1c565b61164a576040517f08c379a00000000000000000000000000000000000000000000000000000000081526004016116419061294c565b60405180910390fd5b50505050565b6060600b805461165f90612dc2565b80601f016020809104026020016040519081016040528092919081815260200182805461168b90612dc2565b80156116d85780601f106116ad576101008083540402835291602001916116d8565b820191906000526020600020905b8154815290600101906020018083116116bb57829003601f168201915b5050505050905090565b6060600082141561172a576040518060400160405280600181526020017f3000000000000000000000000000000000000000000000000000000000000000815250905061183e565b600082905060005b6000821461175c57808061174590612e25565b915050600a826117559190612ca7565b9150611732565b60008167ffffffffffffffff81111561177857611777612f8a565b5b6040519080825280601f01601f1916602001820160405280156117aa5781602001600182028036833780820191505090505b5090505b60008514611837576001826117c39190612cd8565b9150600a856117d29190612e6e565b60306117de9190612c51565b60f81b8183815181106117f4576117f3612f5b565b5b60200101907effffffffffffffffffffffffffffffffffffffffffffffffffffffffffffff1916908160001a905350600a856118309190612ca7565b94506117ae565b8093505050505b919050565b60007f01ffc9a7000000000000000000000000000000000000000000000000000000007bffffffffffffffffffffffffffffffffffffffffffffffffffffffff1916827bffffffffffffffffffffffffffffffffffffffffffffffffffffffff1916149050919050565b6118b78383611bb3565b6118c46000848484611a1c565b611903576040517f08c379a00000000000000000000000000000000000000000000000000000000081526004016118fa9061294c565b60405180910390fd5b505050565b611913838383611d81565b600073ffffffffffffffffffffffffffffffffffffffff168373ffffffffffffffffffffffffffffffffffffffff1614156119565761195181611d86565b611995565b8173ffffffffffffffffffffffffffffffffffffffff168373ffffffffffffffffffffffffffffffffffffffff1614611994576119938382611dcf565b5b5b600073ffffffffffffffffffffffffffffffffffffffff168273ffffffffffffffffffffffffffffffffffffffff1614156119d8576119d381611f3c565b611a17565b8273ffffffffffffffffffffffffffffffffffffffff168273ffffffffffffffffffffffffffffffffffffffff1614611a1657611a15828261200d565b5b5b505050565b6000611a3d8473ffffffffffffffffffffffffffffffffffffffff1661208c565b15611ba6578373ffffffffffffffffffffffffffffffffffffffff1663150b7a02611a66610fa8565b8786866040518563ffffffff1660e01b8152600401611a8894939291906128a3565b602060405180830381600087803b158015611aa257600080fd5b505af1925050508015611ad357506040513d601f19601f82011682018060405250810190611ad0919061247b565b60015b611b56573d8060008114611b03576040519150601f19603f3d011682016040523d82523d6000602084013e611b08565b606091505b50600081511415611b4e576040517f08c379a0000000000000000000000000000000000000000000000000000000008152600401611b459061294c565b60405180910390fd5b805181602001fd5b63150b7a0260e01b7bffffffffffffffffffffffffffffffffffffffffffffffffffffffff1916817bffffffffffffffffffffffffffffffffffffffffffffffffffffffff191614915050611bab565b600190505b949350505050565b600073ffffffffffffffffffffffffffffffffffffffff168273ffffffffffffffffffffffffffffffffffffffff161415611c23576040517f08c379a0000000000000000000000000000000000000000000000000000000008152600401611c1a90612a6c565b60405180910390fd5b611c2c81610f3c565b15611c6c576040517f08c379a0000000000000000000000000000000000000000000000000000000008152600401611c639061298c565b60405180910390fd5b611c7860008383611908565b6001600360008473ffffffffffffffffffffffffffffffffffffffff1673ffffffffffffffffffffffffffffffffffffffff1681526020019081526020016000206000828254611cc89190612c51565b92505081905550816002600083815260200190815260200160002060006101000a81548173ffffffffffffffffffffffffffffffffffffffff021916908373ffffffffffffffffffffffffffffffffffffffff160217905550808273ffffffffffffffffffffffffffffffffffffffff16600073ffffffffffffffffffffffffffffffffffffffff167fddf252ad1be2c89b69c2b068fc378daa952ba7f163c4a11628f55a4df523b3ef60405160405180910390a45050565b505050565b6008805490506009600083815260200190815260200160002081905550600881908060018154018082558091505060019003906000526020600020016000909190919091505550565b60006001611ddc846109b3565b611de69190612cd8565b9050600060076000848152602001908152602001600020549050818114611ecb576000600660008673ffffffffffffffffffffffffffffffffffffffff1673ffffffffffffffffffffffffffffffffffffffff168152602001908152602001600020600084815260200190815260200160002054905080600660008773ffffffffffffffffffffffffffffffffffffffff1673ffffffffffffffffffffffffffffffffffffffff168152602001908152602001600020600084815260200190815260200160002081905550816007600083815260200190815260200160002081905550505b6007600084815260200190815260200160002060009055600660008573ffffffffffffffffffffffffffffffffffffffff1673ffffffffffffffffffffffffffffffffffffffff16815260200190815260200160002060008381526020019081526020016000206000905550505050565b60006001600880549050611f509190612cd8565b9050600060096000848152602001908152602001600020549050600060088381548110611f8057611f7f612f5b565b5b906000526020600020015490508060088381548110611fa257611fa1612f5b565b5b906000526020600020018190555081600960008381526020019081526020016000208190555060096000858152602001908152602001600020600090556008805480611ff157611ff0612f2c565b5b6001900381819060005260206000200160009055905550505050565b6000612018836109b3565b905081600660008573ffffffffffffffffffffffffffffffffffffffff1673ffffffffffffffffffffffffffffffffffffffff168152602001908152602001600020600083815260200190815260200160002081905550806007600084815260200190815260200160002081905550505050565b600080823b905060008111915050919050565b8280546120ab90612dc2565b90600052602060002090601f0160209004810192826120cd5760008555612114565b82601f106120e657805160ff1916838001178555612114565b82800160010185558215612114579182015b828111156121135782518255916020019190600101906120f8565b5b5090506121219190612125565b5090565b5b8082111561213e576000816000905550600101612126565b5090565b600061215561215084612bac565b612b87565b90508281526020810184848401111561217157612170612fbe565b5b61217c848285612d80565b509392505050565b600061219761219284612bdd565b612b87565b9050828152602081018484840111156121b3576121b2612fbe565b5b6121be848285612d80565b509392505050565b6000813590506121d5816134d4565b92915050565b6000813590506121ea816134eb565b92915050565b6000813590506121ff81613502565b92915050565b60008151905061221481613502565b92915050565b600082601f83011261222f5761222e612fb9565b5b813561223f848260208601612142565b91505092915050565b600082601f83011261225d5761225c612fb9565b5b813561226d848260208601612184565b91505092915050565b60008135905061228581613519565b92915050565b6000602082840312156122a1576122a0612fc8565b5b60006122af848285016121c6565b91505092915050565b600080604083850312156122cf576122ce612fc8565b5b60006122dd858286016121c6565b92505060206122ee858286016121c6565b9150509250929050565b60008060006060848603121561231157612310612fc8565b5b600061231f868287016121c6565b9350506020612330868287016121c6565b925050604061234186828701612276565b9150509250925092565b6000806000806080858703121561236557612364612fc8565b5b6000612373878288016121c6565b9450506020612384878288016121c6565b935050604061239587828801612276565b925050606085013567ffffffffffffffff8111156123b6576123b5612fc3565b5b6123c28782880161221a565b91505092959194509250565b600080604083850312156123e5576123e4612fc8565b5b60006123f3858286016121c6565b9250506020612404858286016121db565b9150509250929050565b6000806040838503121561242557612424612fc8565b5b6000612433858286016121c6565b925050602061244485828601612276565b9150509250929050565b60006020828403121561246457612463612fc8565b5b6000612472848285016121f0565b91505092915050565b60006020828403121561249157612490612fc8565b5b600061249f84828501612205565b91505092915050565b6000602082840312156124be576124bd612fc8565b5b600082013567ffffffffffffffff8111156124dc576124db612fc3565b5b6124e884828501612248565b91505092915050565b60006020828403121561250757612506612fc8565b5b600061251584828501612276565b91505092915050565b61252781612d0c565b82525050565b61253681612d1e565b82525050565b600061254782612c0e565b6125518185612c24565b9350612561818560208601612d8f565b61256a81612fcd565b840191505092915050565b600061258082612c19565b61258a8185612c35565b935061259a818560208601612d8f565b6125a381612fcd565b840191505092915050565b60006125b982612c19565b6125c38185612c46565b93506125d3818560208601612d8f565b80840191505092915050565b60006125ec602b83612c35565b91506125f782612fde565b604082019050919050565b600061260f603283612c35565b915061261a8261302d565b604082019050919050565b6000612632602683612c35565b915061263d8261307c565b604082019050919050565b6000612655601c83612c35565b9150612660826130cb565b602082019050919050565b6000612678602483612c35565b9150612683826130f4565b604082019050919050565b600061269b601983612c35565b91506126a682613143565b602082019050919050565b60006126be602c83612c35565b91506126c98261316c565b604082019050919050565b60006126e1603883612c35565b91506126ec826131bb565b604082019050919050565b6000612704602a83612c35565b915061270f8261320a565b604082019050919050565b6000612727602983612c35565b915061273282613259565b604082019050919050565b600061274a602083612c35565b9150612755826132a8565b602082019050919050565b600061276d602c83612c35565b9150612778826132d1565b604082019050919050565b6000612790602083612c35565b915061279b82613320565b602082019050919050565b60006127b3602983612c35565b91506127be82613349565b604082019050919050565b60006127d6602f83612c35565b91506127e182613398565b604082019050919050565b60006127f9602183612c35565b9150612804826133e7565b604082019050919050565b600061281c603183612c35565b915061282782613436565b604082019050919050565b600061283f602c83612c35565b915061284a82613485565b604082019050919050565b61285e81612d76565b82525050565b600061287082856125ae565b915061287c82846125ae565b91508190509392505050565b600060208201905061289d600083018461251e565b92915050565b60006080820190506128b8600083018761251e565b6128c5602083018661251e565b6128d26040830185612855565b81810360608301526128e4818461253c565b905095945050505050565b6000602082019050612904600083018461252d565b92915050565b600060208201905081810360008301526129248184612575565b905092915050565b60006020820190508181036000830152612945816125df565b9050919050565b6000602082019050818103600083015261296581612602565b9050919050565b6000602082019050818103600083015261298581612625565b9050919050565b600060208201905081810360008301526129a581612648565b9050919050565b600060208201905081810360008301526129c58161266b565b9050919050565b600060208201905081810360008301526129e58161268e565b9050919050565b60006020820190508181036000830152612a05816126b1565b9050919050565b60006020820190508181036000830152612a25816126d4565b9050919050565b60006020820190508181036000830152612a45816126f7565b9050919050565b60006020820190508181036000830152612a658161271a565b9050919050565b60006020820190508181036000830152612a858161273d565b9050919050565b60006020820190508181036000830152612aa581612760565b9050919050565b60006020820190508181036000830152612ac581612783565b9050919050565b60006020820190508181036000830152612ae5816127a6565b9050919050565b60006020820190508181036000830152612b05816127c9565b9050919050565b60006020820190508181036000830152612b25816127ec565b9050919050565b60006020820190508181036000830152612b458161280f565b9050919050565b60006020820190508181036000830152612b6581612832565b9050919050565b6000602082019050612b816000830184612855565b92915050565b6000612b91612ba2565b9050612b9d8282612df4565b919050565b6000604051905090565b600067ffffffffffffffff821115612bc757612bc6612f8a565b5b612bd082612fcd565b9050602081019050919050565b600067ffffffffffffffff821115612bf857612bf7612f8a565b5b612c0182612fcd565b9050602081019050919050565b600081519050919050565b600081519050919050565b600082825260208201905092915050565b600082825260208201905092915050565b600081905092915050565b6000612c5c82612d76565b9150612c6783612d76565b9250827fffffffffffffffffffffffffffffffffffffffffffffffffffffffffffffffff03821115612c9c57612c9b612e9f565b5b828201905092915050565b6000612cb282612d76565b9150612cbd83612d76565b925082612ccd57612ccc612ece565b5b828204905092915050565b6000612ce382612d76565b9150612cee83612d76565b925082821015612d0157612d00612e9f565b5b828203905092915050565b6000612d1782612d56565b9050919050565b60008115159050919050565b60007fffffffff0000000000000000000000000000000000000000000000000000000082169050919050565b600073ffffffffffffffffffffffffffffffffffffffff82169050919050565b6000819050919050565b82818337600083830152505050565b60005b83811015612dad578082015181840152602081019050612d92565b83811115612dbc576000848401525b50505050565b60006002820490506001821680612dda57607f821691505b60208210811415612dee57612ded612efd565b5b50919050565b612dfd82612fcd565b810181811067ffffffffffffffff82111715612e1c57612e1b612f8a565b5b80604052505050565b6000612e3082612d76565b91507fffffffffffffffffffffffffffffffffffffffffffffffffffffffffffffffff821415612e6357612e62612e9f565b5b600182019050919050565b6000612e7982612d76565b9150612e8483612d76565b925082612e9457612e93612ece565b5b828206905092915050565b7f4e487b7100000000000000000000000000000000000000000000000000000000600052601160045260246000fd5b7f4e487b7100000000000000000000000000000000000000000000000000000000600052601260045260246000fd5b7f4e487b7100000000000000000000000000000000000000000000000000000000600052602260045260246000fd5b7f4e487b7100000000000000000000000000000000000000000000000000000000600052603160045260246000fd5b7f4e487b7100000000000000000000000000000000000000000000000000000000600052603260045260246000fd5b7f4e487b7100000000000000000000000000000000000000000000000000000000600052604160045260246000fd5b600080fd5b600080fd5b600080fd5b600080fd5b6000601f19601f8301169050919050565b7f455243373231456e756d657261626c653a206f776e657220696e646578206f7560008201527f74206f6620626f756e6473000000000000000000000000000000000000000000602082015250565b7f4552433732313a207472616e7366657220746f206e6f6e20455243373231526560008201527f63656976657220696d706c656d656e7465720000000000000000000000000000602082015250565b7f4f776e61626c653a206e6577206f776e657220697320746865207a65726f206160008201527f6464726573730000000000000000000000000000000000000000000000000000602082015250565b7f4552433732313a20746f6b656e20616c7265616479206d696e74656400000000600082015250565b7f4552433732313a207472616e7366657220746f20746865207a65726f2061646460008201527f7265737300000000000000000000000000000000000000000000000000000000602082015250565b7f4552433732313a20617070726f766520746f2063616c6c657200000000000000600082015250565b7f4552433732313a206f70657261746f7220717565727920666f72206e6f6e657860008201527f697374656e7420746f6b656e0000000000000000000000000000000000000000602082015250565b7f4552433732313a20617070726f76652063616c6c6572206973206e6f74206f7760008201527f6e6572206e6f7220617070726f76656420666f7220616c6c0000000000000000602082015250565b7f4552433732313a2062616c616e636520717565727920666f7220746865207a6560008201527f726f206164647265737300000000000000000000000000000000000000000000602082015250565b7f4552433732313a206f776e657220717565727920666f72206e6f6e657869737460008201527f656e7420746f6b656e0000000000000000000000000000000000000000000000602082015250565b7f4552433732313a206d696e7420746f20746865207a65726f2061646472657373600082015250565b7f4552433732313a20617070726f76656420717565727920666f72206e6f6e657860008201527f697374656e7420746f6b656e0000000000000000000000000000000000000000602082015250565b7f4f776e61626c653a2063616c6c6572206973206e6f7420746865206f776e6572600082015250565b7f4552433732313a207472616e73666572206f6620746f6b656e2074686174206960008201527f73206e6f74206f776e0000000000000000000000000000000000000000000000602082015250565b7f4552433732314d657461646174613a2055524920717565727920666f72206e6f60008201527f6e6578697374656e7420746f6b656e0000000000000000000000000000000000602082015250565b7f4552433732313a20617070726f76616c20746f2063757272656e74206f776e6560008201527f7200000000000000000000000000000000000000000000000000000000000000602082015250565b7f4552433732313a207472616e736665722063616c6c6572206973206e6f74206f60008201527f776e6572206e6f7220617070726f766564000000000000000000000000000000602082015250565b7f455243373231456e756d657261626c653a20676c6f62616c20696e646578206f60008201527f7574206f6620626f756e64730000000000000000000000000000000000000000602082015250565b6134dd81612d0c565b81146134e857600080fd5b50565b6134f481612d1e565b81146134ff57600080fd5b50565b61350b81612d2a565b811461351657600080fd5b50565b61352281612d76565b811461352d57600080fd5b5056fea26469706673582212209465a14cfd7a21ea10fc1caa1a1f2e7014b1243e25f08a7477969490960960dd64736f6c63430008070033",
  "linkReferences": {},
  "deployedLinkReferences": {},
  "address": "0x5FC8d32690cc91D4c39d9d3abcBD16989F875707"
}